{
  "contractName": "DigitalCertificate",
  "abi": [
    {
      "anonymous": false,
      "inputs": [
        {
          "indexed": false,
          "internalType": "bytes32",
          "name": "hash",
          "type": "bytes32"
        }
      ],
      "name": "GenerateCertificate",
      "type": "event"
    },
    {
      "inputs": [
        {
          "internalType": "bytes32",
          "name": "",
          "type": "bytes32"
        }
      ],
      "name": "certificates",
      "outputs": [
        {
          "internalType": "string",
          "name": "studentname",
          "type": "string"
        },
        {
          "internalType": "string",
          "name": "department",
          "type": "string"
        },
        {
          "components": [
            {
              "internalType": "string",
              "name": "universityname",
              "type": "string"
            },
            {
              "internalType": "bool",
              "name": "isFlag",
              "type": "bool"
            }
          ],
          "internalType": "struct DigitalCertificate.University",
          "name": "universitydata",
          "type": "tuple"
        },
        {
          "internalType": "string",
          "name": "startingtime",
          "type": "string"
        },
        {
          "internalType": "string",
          "name": "graduationtime",
          "type": "string"
        },
        {
          "internalType": "string",
          "name": "average",
          "type": "string"
        },
        {
          "internalType": "uint256",
          "name": "blocktimestamp",
          "type": "uint256"
        }
      ],
      "stateMutability": "view",
      "type": "function",
      "constant": true
    },
    {
      "inputs": [],
      "name": "hash",
      "outputs": [
        {
          "internalType": "bytes32",
          "name": "",
          "type": "bytes32"
        }
      ],
      "stateMutability": "view",
      "type": "function",
      "constant": true
    },
    {
      "inputs": [],
      "name": "superadminaddress",
      "outputs": [
        {
          "internalType": "address",
          "name": "",
          "type": "address"
        }
      ],
      "stateMutability": "view",
      "type": "function",
      "constant": true
    },
    {
      "inputs": [],
      "name": "totalcertificate",
      "outputs": [
        {
          "internalType": "uint256",
          "name": "",
          "type": "uint256"
        }
      ],
      "stateMutability": "view",
      "type": "function",
      "constant": true
    },
    {
      "inputs": [
        {
          "internalType": "address",
          "name": "",
          "type": "address"
        }
      ],
      "name": "university",
      "outputs": [
        {
          "internalType": "string",
          "name": "universityname",
          "type": "string"
        },
        {
          "internalType": "bool",
          "name": "isFlag",
          "type": "bool"
        }
      ],
      "stateMutability": "view",
      "type": "function",
      "constant": true
    },
    {
      "inputs": [
        {
          "internalType": "address",
          "name": "_address",
          "type": "address"
        }
      ],
      "name": "Login",
      "outputs": [
        {
          "internalType": "uint256",
          "name": "",
          "type": "uint256"
        }
      ],
      "stateMutability": "view",
      "type": "function",
      "constant": true
    },
    {
      "inputs": [
        {
          "internalType": "address",
          "name": "_address",
          "type": "address"
        }
      ],
      "name": "getUniversity",
      "outputs": [
        {
          "internalType": "string",
          "name": "",
          "type": "string"
        }
      ],
      "stateMutability": "view",
      "type": "function",
      "constant": true
    },
    {
      "inputs": [
        {
          "internalType": "address",
          "name": "_address",
          "type": "address"
        },
        {
          "internalType": "string",
          "name": "_universityname",
          "type": "string"
        }
      ],
      "name": "addUniversity",
      "outputs": [],
      "stateMutability": "nonpayable",
      "type": "function"
    },
    {
      "inputs": [
        {
          "internalType": "string",
          "name": "_studentname",
          "type": "string"
        },
        {
          "internalType": "string",
          "name": "_department",
          "type": "string"
        },
        {
          "internalType": "string",
          "name": "_startingtime",
          "type": "string"
        },
        {
          "internalType": "string",
          "name": "_graduationtime",
          "type": "string"
        },
        {
          "internalType": "string",
          "name": "_average",
          "type": "string"
        }
      ],
      "name": "generateCertificate",
      "outputs": [],
      "stateMutability": "nonpayable",
      "type": "function"
    },
    {
      "inputs": [],
      "name": "getTotalCertificate",
      "outputs": [
        {
          "internalType": "uint256",
          "name": "",
          "type": "uint256"
        }
      ],
      "stateMutability": "nonpayable",
      "type": "function"
    },
    {
      "inputs": [
        {
          "internalType": "bytes32",
          "name": "_id",
          "type": "bytes32"
        }
      ],
      "name": "getData",
      "outputs": [
        {
          "internalType": "string",
          "name": "",
          "type": "string"
        },
        {
          "internalType": "string",
          "name": "",
          "type": "string"
        },
        {
          "internalType": "string",
          "name": "",
          "type": "string"
        },
        {
          "internalType": "string",
          "name": "",
          "type": "string"
        },
        {
          "internalType": "string",
          "name": "",
          "type": "string"
        },
        {
          "internalType": "string",
          "name": "",
          "type": "string"
        },
        {
          "internalType": "uint256",
          "name": "",
          "type": "uint256"
        }
      ],
      "stateMutability": "view",
      "type": "function",
      "constant": true
    },
    {
      "inputs": [
        {
          "internalType": "uint256",
          "name": "_index",
          "type": "uint256"
        },
        {
          "internalType": "address",
          "name": "_address",
          "type": "address"
        }
      ],
      "name": "getCertificateList",
      "outputs": [
        {
          "internalType": "bytes32",
          "name": "",
          "type": "bytes32"
        },
        {
          "internalType": "string",
          "name": "",
          "type": "string"
        },
        {
          "internalType": "string",
          "name": "",
          "type": "string"
        }
      ],
      "stateMutability": "view",
      "type": "function",
      "constant": true
    }
  ],
  "bytecode": "0x6080604052600060025533600360006101000a81548173ffffffffffffffffffffffffffffffffffffffff021916908373ffffffffffffffffffffffffffffffffffffffff16021790555034801561005657600080fd5b5061268c806100666000396000f3fe608060405234801561001057600080fd5b50600436106100b45760003560e01c80637167c2d6116100715780637167c2d614610196578063742f0688146101c857806394a59ea6146101fe578063a908dc621461022e578063eecc1c951461024a578063fca3ff881461027a576100b4565b806309bd5a60146100b957806309e7b973146100d75780631cacf492146100f35780634b8f70bb1461012457806354f6127f1461014257806368843e6914610178575b600080fd5b6100c1610298565b6040516100ce9190612231565b60405180910390f35b6100f160048036038101906100ec9190611d96565b61029e565b005b61010d60048036038101906101089190611cc7565b610743565b60405161011b9291906122b3565b60405180910390f35b61012c61080c565b6040516101399190612495565b60405180910390f35b61015c60048036038101906101579190611d44565b610812565b60405161016f97969594939291906122e3565b60405180910390f35b610180610c8b565b60405161018d9190612495565b60405180910390f35b6101b060048036038101906101ab9190611e85565b610c95565b6040516101bf9392919061224c565b60405180910390f35b6101e260048036038101906101dd9190611d44565b610f51565b6040516101f5979695949392919061237c565b60405180910390f35b61021860048036038101906102139190611cc7565b611352565b6040516102259190612291565b60405180910390f35b61024860048036038101906102439190611cf0565b611509565b005b610264600480360381019061025f9190611cc7565b611702565b6040516102719190612495565b60405180910390f35b6102826117d1565b60405161028f9190612216565b60405180910390f35b60005481565b60001515600460003373ffffffffffffffffffffffffffffffffffffffff1673ffffffffffffffffffffffffffffffffffffffff16815260200190815260200160002060010160009054906101000a900460ff16151514610701576000429050600060026103148861030f426117f7565b61193b565b60405160200161032491906121e8565b60405160208183030381529060405260405161034091906121d1565b602060405180830381855afa15801561035d573d6000803e3d6000fd5b5050506040513d601f19601f820116820180604052508101906103809190611d6d565b905080600081905550866005600083815260200190815260200160002060000190805190602001906103b3929190611a9c565b50856005600083815260200190815260200160002060010190805190602001906103de929190611a9c565b50600460003373ffffffffffffffffffffffffffffffffffffffff1673ffffffffffffffffffffffffffffffffffffffff168152602001908152602001600020600560008381526020019081526020016000206002016000820181600001908054600181600116156101000203166002900461045b929190611b1c565b506001820160009054906101000a900460ff168160010160006101000a81548160ff021916908315150217905550905050846005600083815260200190815260200160002060040190805190602001906104b6929190611a9c565b50836005600083815260200190815260200160002060050190805190602001906104e1929190611a9c565b508260056000838152602001908152602001600020600601908051906020019061050c929190611a9c565b5081600560008381526020019081526020016000206007018190555060016040518060800160405280838152602001898152602001888152602001600460003373ffffffffffffffffffffffffffffffffffffffff1673ffffffffffffffffffffffffffffffffffffffff1681526020019081526020016000206000018054600181600116156101000203166002900480601f01602080910402602001604051908101604052809291908181526020018280546001816001161561010002031660029004801561061d5780601f106105f25761010080835404028352916020019161061d565b820191906000526020600020905b81548152906001019060200180831161060057829003601f168201915b50505050508152509080600181540180825580915050600190039060005260206000209060040201600090919091909150600082015181600001556020820151816001019080519060200190610674929190611a9c565b506040820151816002019080519060200190610691929190611a9c565b5060608201518160030190805190602001906106ae929190611a9c565b5050506002600081548092919060010191905055507f586caaede68a9f6e13182711b07df73932703d2f53d6d618d9635a6025cebc64816040516106f29190612231565b60405180910390a1505061073c565b6040517f08c379a000000000000000000000000000000000000000000000000000000000815260040161073390612475565b60405180910390fd5b5050505050565b6004602052806000526040600020600091509050806000018054600181600116156101000203166002900480601f0160208091040260200160405190810160405280929190818152602001828054600181600116156101000203166002900480156107ef5780601f106107c4576101008083540402835291602001916107ef565b820191906000526020600020905b8154815290600101906020018083116107d257829003601f168201915b5050505050908060010160009054906101000a900460ff16905082565b60025481565b6060806060806060806000610825611ba3565b600560008a81526020019081526020016000206040518060e0016040529081600082018054600181600116156101000203166002900480601f0160208091040260200160405190810160405280929190818152602001828054600181600116156101000203166002900480156108dc5780601f106108b1576101008083540402835291602001916108dc565b820191906000526020600020905b8154815290600101906020018083116108bf57829003601f168201915b50505050508152602001600182018054600181600116156101000203166002900480601f01602080910402602001604051908101604052809291908181526020018280546001816001161561010002031660029004801561097e5780601f106109535761010080835404028352916020019161097e565b820191906000526020600020905b81548152906001019060200180831161096157829003601f168201915b5050505050815260200160028201604051806040016040529081600082018054600181600116156101000203166002900480601f016020809104026020016040519081016040528092919081815260200182805460018160011615610100020316600290048015610a305780601f10610a0557610100808354040283529160200191610a30565b820191906000526020600020905b815481529060010190602001808311610a1357829003601f168201915b505050505081526020016001820160009054906101000a900460ff1615151515815250508152602001600482018054600181600116156101000203166002900480601f016020809104026020016040519081016040528092919081815260200182805460018160011615610100020316600290048015610af15780601f10610ac657610100808354040283529160200191610af1565b820191906000526020600020905b815481529060010190602001808311610ad457829003601f168201915b50505050508152602001600582018054600181600116156101000203166002900480601f016020809104026020016040519081016040528092919081815260200182805460018160011615610100020316600290048015610b935780601f10610b6857610100808354040283529160200191610b93565b820191906000526020600020905b815481529060010190602001808311610b7657829003601f168201915b50505050508152602001600682018054600181600116156101000203166002900480601f016020809104026020016040519081016040528092919081815260200182805460018160011615610100020316600290048015610c355780601f10610c0a57610100808354040283529160200191610c35565b820191906000526020600020905b815481529060010190602001808311610c1857829003601f168201915b50505050508152602001600782015481525050905080600001518160200151826040015160000151836060015184608001518560a001518660c00151975097509750975097509750975050919395979092949650565b6000600254905090565b600060608060011515600460008673ffffffffffffffffffffffffffffffffffffffff1673ffffffffffffffffffffffffffffffffffffffff16815260200190815260200160002060010160009054906101000a900460ff161515148015610da6575060018581548110610d0557fe5b9060005260206000209060040201600301604051602001610d2691906121ff565b60405160208183030381529060405280519060200120600460008673ffffffffffffffffffffffffffffffffffffffff1673ffffffffffffffffffffffffffffffffffffffff168152602001908152602001600020600001604051602001610d8e91906121ff565b60405160208183030381529060405280519060200120145b15610f495760018581548110610db857fe5b90600052602060002090600402016000015460018681548110610dd757fe5b906000526020600020906004020160010160018781548110610df557fe5b9060005260206000209060040201600201818054600181600116156101000203166002900480601f016020809104026020016040519081016040528092919081815260200182805460018160011615610100020316600290048015610e9b5780601f10610e7057610100808354040283529160200191610e9b565b820191906000526020600020905b815481529060010190602001808311610e7e57829003601f168201915b50505050509150808054600181600116156101000203166002900480601f016020809104026020016040519081016040528092919081815260200182805460018160011615610100020316600290048015610f375780601f10610f0c57610100808354040283529160200191610f37565b820191906000526020600020905b815481529060010190602001808311610f1a57829003601f168201915b50505050509050925092509250610f4a565b5b9250925092565b6005602052806000526040600020600091509050806000018054600181600116156101000203166002900480601f016020809104026020016040519081016040528092919081815260200182805460018160011615610100020316600290048015610ffd5780601f10610fd257610100808354040283529160200191610ffd565b820191906000526020600020905b815481529060010190602001808311610fe057829003601f168201915b505050505090806001018054600181600116156101000203166002900480601f01602080910402602001604051908101604052809291908181526020018280546001816001161561010002031660029004801561109b5780601f106110705761010080835404028352916020019161109b565b820191906000526020600020905b81548152906001019060200180831161107e57829003601f168201915b50505050509080600201604051806040016040529081600082018054600181600116156101000203166002900480601f0160208091040260200160405190810160405280929190818152602001828054600181600116156101000203166002900480156111495780601f1061111e57610100808354040283529160200191611149565b820191906000526020600020905b81548152906001019060200180831161112c57829003601f168201915b505050505081526020016001820160009054906101000a900460ff16151515158152505090806004018054600181600116156101000203166002900480601f0160208091040260200160405190810160405280929190818152602001828054600181600116156101000203166002900480156112065780601f106111db57610100808354040283529160200191611206565b820191906000526020600020905b8154815290600101906020018083116111e957829003601f168201915b505050505090806005018054600181600116156101000203166002900480601f0160208091040260200160405190810160405280929190818152602001828054600181600116156101000203166002900480156112a45780601f10611279576101008083540402835291602001916112a4565b820191906000526020600020905b81548152906001019060200180831161128757829003601f168201915b505050505090806006018054600181600116156101000203166002900480601f0160208091040260200160405190810160405280929190818152602001828054600181600116156101000203166002900480156113425780601f1061131757610100808354040283529160200191611342565b820191906000526020600020905b81548152906001019060200180831161132557829003601f168201915b5050505050908060070154905087565b606060001515600460008473ffffffffffffffffffffffffffffffffffffffff1673ffffffffffffffffffffffffffffffffffffffff16815260200190815260200160002060010160009054906101000a900460ff16151514156113eb576040517f08c379a00000000000000000000000000000000000000000000000000000000081526004016113e290612455565b60405180910390fd5b6113f3611be6565b600460008473ffffffffffffffffffffffffffffffffffffffff1673ffffffffffffffffffffffffffffffffffffffff168152602001908152602001600020604051806040016040529081600082018054600181600116156101000203166002900480601f0160208091040260200160405190810160405280929190818152602001828054600181600116156101000203166002900480156114d65780601f106114ab576101008083540402835291602001916114d6565b820191906000526020600020905b8154815290600101906020018083116114b957829003601f168201915b505050505081526020016001820160009054906101000a900460ff16151515158152505090508060000151915050919050565b600360009054906101000a900473ffffffffffffffffffffffffffffffffffffffff1673ffffffffffffffffffffffffffffffffffffffff163373ffffffffffffffffffffffffffffffffffffffff1614156116c35760011515600460008473ffffffffffffffffffffffffffffffffffffffff1673ffffffffffffffffffffffffffffffffffffffff16815260200190815260200160002060010160009054906101000a900460ff161515146116835780600460008473ffffffffffffffffffffffffffffffffffffffff1673ffffffffffffffffffffffffffffffffffffffff1681526020019081526020016000206000019080519060200190611610929190611a9c565b506001600460008473ffffffffffffffffffffffffffffffffffffffff1673ffffffffffffffffffffffffffffffffffffffff16815260200190815260200160002060010160006101000a81548160ff0219169083151502179055506002600081548092919060010191905055506116be565b6040517f08c379a00000000000000000000000000000000000000000000000000000000081526004016116b590612435565b60405180910390fd5b6116fe565b6040517f08c379a00000000000000000000000000000000000000000000000000000000081526004016116f590612415565b60405180910390fd5b5050565b6000600360009054906101000a900473ffffffffffffffffffffffffffffffffffffffff1673ffffffffffffffffffffffffffffffffffffffff168273ffffffffffffffffffffffffffffffffffffffff16141561176357600190506117cc565b60001515600460008473ffffffffffffffffffffffffffffffffffffffff1673ffffffffffffffffffffffffffffffffffffffff16815260200190815260200160002060010160009054906101000a900460ff161515146117c757600290506117cc565b600090505b919050565b600360009054906101000a900473ffffffffffffffffffffffffffffffffffffffff1681565b6060600082141561183f576040518060400160405280600181526020017f30000000000000000000000000000000000000000000000000000000000000008152509050611936565b600082905060005b60008214611869578080600101915050600a828161186157fe5b049150611847565b60608167ffffffffffffffff8111801561188257600080fd5b506040519080825280601f01601f1916602001820160405280156118b55781602001600182028036833780820191505090505b50905060006001830390505b6000861461192e57600a86816118d357fe5b0660300160f81b828280600190039350815181106118ed57fe5b60200101907effffffffffffffffffffffffffffffffffffffffffffffffffffffffffffff1916908160001a905350600a868161192657fe5b0495506118c1565b819450505050505b919050565b60608083905060608390506060815183510167ffffffffffffffff8111801561196357600080fd5b506040519080825280601f01601f1916602001820160405280156119965781602001600182028036833780820191505090505b5090506060819050600080600091505b8551821015611a14578582815181106119bb57fe5b602001015160f81c60f81b8382806001019350815181106119d857fe5b60200101907effffffffffffffffffffffffffffffffffffffffffffffffffffffffffffff1916908160001a90535081806001019250506119a6565b600091505b8451821015611a8d57848280600101935081518110611a3457fe5b602001015160f81c60f81b838280600101935081518110611a5157fe5b60200101907effffffffffffffffffffffffffffffffffffffffffffffffffffffffffffff1916908160001a9053508180600101925050611a19565b82965050505050505092915050565b828054600181600116156101000203166002900490600052602060002090601f016020900481019282601f10611add57805160ff1916838001178555611b0b565b82800160010185558215611b0b579182015b82811115611b0a578251825591602001919060010190611aef565b5b509050611b189190611c02565b5090565b828054600181600116156101000203166002900490600052602060002090601f016020900481019282601f10611b555780548555611b92565b82800160010185558215611b9257600052602060002091601f016020900482015b82811115611b91578254825591600101919060010190611b76565b5b509050611b9f9190611c02565b5090565b6040518060e001604052806060815260200160608152602001611bc4611be6565b8152602001606081526020016060815260200160608152602001600081525090565b6040518060400160405280606081526020016000151581525090565b5b80821115611c1b576000816000905550600101611c03565b5090565b600081359050611c2e81612611565b92915050565b600081359050611c4381612628565b92915050565b600081519050611c5881612628565b92915050565b600082601f830112611c6f57600080fd5b8135611c82611c7d826124dd565b6124b0565b91508082526020830160208301858383011115611c9e57600080fd5b611ca98382846125be565b50505092915050565b600081359050611cc18161263f565b92915050565b600060208284031215611cd957600080fd5b6000611ce784828501611c1f565b91505092915050565b60008060408385031215611d0357600080fd5b6000611d1185828601611c1f565b925050602083013567ffffffffffffffff811115611d2e57600080fd5b611d3a85828601611c5e565b9150509250929050565b600060208284031215611d5657600080fd5b6000611d6484828501611c34565b91505092915050565b600060208284031215611d7f57600080fd5b6000611d8d84828501611c49565b91505092915050565b600080600080600060a08688031215611dae57600080fd5b600086013567ffffffffffffffff811115611dc857600080fd5b611dd488828901611c5e565b955050602086013567ffffffffffffffff811115611df157600080fd5b611dfd88828901611c5e565b945050604086013567ffffffffffffffff811115611e1a57600080fd5b611e2688828901611c5e565b935050606086013567ffffffffffffffff811115611e4357600080fd5b611e4f88828901611c5e565b925050608086013567ffffffffffffffff811115611e6c57600080fd5b611e7888828901611c5e565b9150509295509295909350565b60008060408385031215611e9857600080fd5b6000611ea685828601611cb2565b9250506020611eb785828601611c1f565b9150509250929050565b611eca8161256c565b82525050565b611ed98161257e565b82525050565b611ee88161257e565b82525050565b611ef78161258a565b82525050565b6000611f088261251e565b611f128185612534565b9350611f228185602086016125cd565b80840191505092915050565b6000611f3982612529565b611f43818561253f565b9350611f538185602086016125cd565b611f5c81612600565b840191505092915050565b6000611f7282612529565b611f7c8185612550565b9350611f8c8185602086016125cd565b611f9581612600565b840191505092915050565b6000611fab82612529565b611fb58185612561565b9350611fc58185602086016125cd565b80840191505092915050565b600081546001811660008114611fee576001811461201357612057565b607f6002830416611fff8187612561565b955060ff1983168652808601935050612057565b600282046120218187612561565b955061202c85612509565b60005b8281101561204e5781548189015260018201915060208101905061202f565b82880195505050505b505092915050565b600061206c601e83612550565b91507f5361646563652041646d696e20456b6c656d65207961706162696c69722e00006000830152602082019050919050565b60006120ac602783612550565b91507f41796e692041647265736520536168697020556e69766572736974652042756c60008301527f756e75796f722e000000000000000000000000000000000000000000000000006020830152604082019050919050565b6000612112601383612550565b91507f426f796c652042697220416472657320596f6b000000000000000000000000006000830152602082019050919050565b6000612152601483612550565b91507f456b6c656d65205965746b696e697a20596f6b2e0000000000000000000000006000830152602082019050919050565b600060408301600083015184820360008601526121a28282611f2e565b91505060208301516121b76020860182611ed0565b508091505092915050565b6121cb816125b4565b82525050565b60006121dd8284611efd565b915081905092915050565b60006121f48284611fa0565b915081905092915050565b600061220b8284611fd1565b915081905092915050565b600060208201905061222b6000830184611ec1565b92915050565b60006020820190506122466000830184611eee565b92915050565b60006060820190506122616000830186611eee565b81810360208301526122738185611f67565b905081810360408301526122878184611f67565b9050949350505050565b600060208201905081810360008301526122ab8184611f67565b905092915050565b600060408201905081810360008301526122cd8185611f67565b90506122dc6020830184611edf565b9392505050565b600060e08201905081810360008301526122fd818a611f67565b905081810360208301526123118189611f67565b905081810360408301526123258188611f67565b905081810360608301526123398187611f67565b9050818103608083015261234d8186611f67565b905081810360a08301526123618185611f67565b905061237060c08301846121c2565b98975050505050505050565b600060e0820190508181036000830152612396818a611f67565b905081810360208301526123aa8189611f67565b905081810360408301526123be8188612185565b905081810360608301526123d28187611f67565b905081810360808301526123e68186611f67565b905081810360a08301526123fa8185611f67565b905061240960c08301846121c2565b98975050505050505050565b6000602082019050818103600083015261242e8161205f565b9050919050565b6000602082019050818103600083015261244e8161209f565b9050919050565b6000602082019050818103600083015261246e81612105565b9050919050565b6000602082019050818103600083015261248e81612145565b9050919050565b60006020820190506124aa60008301846121c2565b92915050565b6000604051905081810181811067ffffffffffffffff821117156124d357600080fd5b8060405250919050565b600067ffffffffffffffff8211156124f457600080fd5b601f19601f8301169050602081019050919050565b60008190508160005260206000209050919050565b600081519050919050565b600081519050919050565b600081905092915050565b600082825260208201905092915050565b600082825260208201905092915050565b600081905092915050565b600061257782612594565b9050919050565b60008115159050919050565b6000819050919050565b600073ffffffffffffffffffffffffffffffffffffffff82169050919050565b6000819050919050565b82818337600083830152505050565b60005b838110156125eb5780820151818401526020810190506125d0565b838111156125fa576000848401525b50505050565b6000601f19601f8301169050919050565b61261a8161256c565b811461262557600080fd5b50565b6126318161258a565b811461263c57600080fd5b50565b612648816125b4565b811461265357600080fd5b5056fea26469706673582212208a7612f11fa73b241b3172a561010f333c901db63f1330c11fa0f6effd1f9d1264736f6c63430007000033",
  "immutableReferences": {},
  "source": "pragma solidity 0.7.0;\r\npragma experimental ABIEncoderV2;\r\n// SPDX-License-Identifier: MIT\r\ncontract DigitalCertificate{\r\n   \r\n   struct University{\r\n       string universityname;\r\n       bool isFlag;\r\n   }\r\n    \r\n    struct Certificate{\r\n        string studentname;\r\n        string department;\r\n        University universitydata;\r\n        string startingtime;\r\n        string graduationtime;\r\n        string average;\r\n        uint blocktimestamp;\r\n        \r\n    }\r\n    struct CertificateList{\r\n        bytes32 hash;\r\n        string studentname;\r\n        string department;\r\n        string universityname;\r\n    }\r\n    struct BlockList{\r\n        string reasonforblocking;\r\n        bool isFlag;\r\n    }\r\n    \r\n    bytes32  public hash;\r\n    CertificateList[] certificatelist;\r\n     uint public totalcertificate=0;\r\n    address public superadminaddress =msg.sender;\r\n\r\n    mapping(address=>University) public university;\r\n    mapping(bytes32=>Certificate) public certificates;\r\n    event GenerateCertificate(bytes32 hash);\r\n\r\n   function uint2str(uint _i) internal pure returns (string memory _uintAsString) {\r\n    if (_i == 0) {\r\n        return \"0\";\r\n    }\r\n    uint j = _i;\r\n    uint len;\r\n    while (j != 0) {\r\n        len++;\r\n        j /= 10;\r\n    }\r\n    bytes memory bstr = new bytes(len);\r\n    uint k = len - 1;\r\n    while (_i != 0) {\r\n        bstr[k--] = byte(uint8(48 + _i % 10));\r\n        _i /= 10;\r\n    }\r\n    return string(bstr);\r\n}\r\n  \r\n     function strConcat(string memory _base, string memory _value) internal returns (string memory) {\r\n        bytes memory _baseBytes = bytes(_base);\r\n        bytes memory _valueBytes = bytes(_value);\r\n\r\n        string memory _tmpValue = new string(_baseBytes.length + _valueBytes.length);\r\n        bytes memory _newValue = bytes(_tmpValue);\r\n\r\n        uint i;\r\n        uint j;\r\n\r\n        for(i=0; i<_baseBytes.length; i++) {\r\n            _newValue[j++] = _baseBytes[i];\r\n        }\r\n\r\n        for(i=0; i<_valueBytes.length; i++) {\r\n            _newValue[j++] = _valueBytes[i++];\r\n        }\r\n\r\n        return string(_newValue);\r\n    }\r\n    \r\n \r\n    function Login(address _address) public view returns(uint){// Tamamland.\r\n        if(_address==superadminaddress)\r\n        {\r\n            return 1;\r\n        }\r\n        else if(university[_address].isFlag!=false){\r\n            return 2;\r\n        }\r\n        else{\r\n            return 0;\r\n        }\r\n    }\r\n    \r\n    function getUniversity(address _address) public view returns(string memory){//data geliyor\r\n        require(university[_address].isFlag!=false,\"Boyle Bir Adres Yok\");\r\n        University memory temp=university[_address];\r\n        return(temp.universityname);\r\n    }\r\n    \r\n    function addUniversity(address _address, string memory _universityname) public {\r\n        \r\n        if(msg.sender==superadminaddress ){\r\n            if(university[_address].isFlag !=true){\r\n               university[_address].universityname=_universityname;\r\n               university[_address].isFlag=true;\r\n               totalcertificate++;\r\n            }\r\n            else {\r\n                revert(\"Ayni Adrese Sahip Universite Bulunuyor.\");\r\n            }\r\n        }\r\n    else{\r\n        revert(\"Sadece Admin Ekleme yapabilir.\");\r\n        }\r\n    \r\n    }\r\n    \r\n    function generateCertificate(string memory _studentname,string memory _department,string memory _startingtime,string memory _graduationtime,string memory _average) public {\r\n          if(university[msg.sender].isFlag!=false){\r\n          \r\n          uint _timestamp=block.timestamp;\r\n             bytes32 hash_id=sha256(abi.encodePacked(strConcat(_studentname,uint2str( block.timestamp))));\r\n     //   certificates.push(Certificate({studentname:_studentname,universitydata,startingtime:_startingtime,graduationtime:_graduationtime,average:_average}));\r\n     hash=hash_id;\r\n     certificates[hash_id].studentname=_studentname;\r\n     certificates[hash_id].department=_department;\r\n     certificates[hash_id].universitydata=university[msg.sender];\r\n     certificates[hash_id].startingtime=_startingtime;\r\n     certificates[hash_id].graduationtime=_graduationtime;\r\n     certificates[hash_id].average=_average;\r\n     certificates[hash_id].blocktimestamp=_timestamp;\r\n     certificatelist.push(CertificateList(hash_id,_studentname,_department,university[msg.sender].universityname));\r\n     totalcertificate++;\r\n     \r\n     emit GenerateCertificate(hash_id);\r\n      }\r\n      else{\r\n          revert(\"Ekleme Yetkiniz Yok.\");\r\n      }\r\n        \r\n    }\r\n    function getTotalCertificate() public returns (uint){\r\n        return totalcertificate;\r\n    }\r\n    function getData(bytes32 _id) public view returns(string memory,string memory,string memory,string memory,string memory,string memory,uint){\r\n        Certificate memory temp=certificates[_id];\r\n         return (temp.studentname,temp.department,temp.universitydata.universityname,temp.startingtime,temp.graduationtime,temp.average,temp.blocktimestamp);\r\n        \r\n    }\r\n    \r\n          function getCertificateList(uint _index,address _address)public view returns(bytes32,string memory,string memory){\r\n                \r\n                \r\n                if(university[_address].isFlag==true && keccak256(abi.encodePacked(university[_address].universityname))==keccak256(abi.encodePacked(certificatelist[_index].universityname))){\r\n                      return (certificatelist[_index].hash,certificatelist[_index].studentname,certificatelist[_index].department); \r\n                }\r\n                else{\r\n                    \r\n                }\r\n      \r\n\r\n        }\r\n    \r\n    \r\n    \r\n}",
  "sourcePath": "C:/TEZ/DigitalCertificate/contracts/DigitalCertificate.sol",
  "compiler": {
    "name": "solc",
    "version": "0.7.0+commit.9e61f92b.Emscripten.clang"
  },
  "schemaVersion": "3.3.4",
  "updatedAt": "2021-05-06T21:46:46.668Z",
  "networkType": "ethereum",
  "devdoc": {
    "kind": "dev",
    "methods": {},
    "version": 1
  },
  "userdoc": {
    "kind": "user",
    "methods": {},
    "version": 1
  }
}